{
  "contractName": "Contactable",
  "abi": [
    {
      "constant": true,
      "inputs": [],
      "name": "contactInformation",
      "outputs": [
        {
          "name": "",
          "type": "string"
        }
      ],
      "payable": false,
      "stateMutability": "view",
      "type": "function"
    },
    {
      "constant": true,
      "inputs": [],
      "name": "owner",
      "outputs": [
        {
          "name": "",
          "type": "address"
        }
      ],
      "payable": false,
      "stateMutability": "view",
      "type": "function"
    },
    {
      "constant": false,
      "inputs": [
        {
          "name": "newOwner",
          "type": "address"
        }
      ],
      "name": "transferOwnership",
      "outputs": [],
      "payable": false,
      "stateMutability": "nonpayable",
      "type": "function"
    },
    {
      "anonymous": false,
      "inputs": [
        {
          "indexed": true,
          "name": "previousOwner",
          "type": "address"
        },
        {
          "indexed": true,
          "name": "newOwner",
          "type": "address"
        }
      ],
      "name": "OwnershipTransferred",
      "type": "event"
    },
    {
      "constant": false,
      "inputs": [
        {
          "name": "info",
          "type": "string"
        }
      ],
      "name": "setContactInformation",
      "outputs": [],
      "payable": false,
      "stateMutability": "nonpayable",
      "type": "function"
    }
  ],
  "bytecode": "0x6060604052336000806101000a81548173ffffffffffffffffffffffffffffffffffffffff021916908373ffffffffffffffffffffffffffffffffffffffff16021790555061053e806100536000396000f300606060405260043610610062576000357c0100000000000000000000000000000000000000000000000000000000900463ffffffff16806336f7ab5e146100675780638da5cb5b146100f5578063b967a52e1461014a578063f2fde38b146101a7575b600080fd5b341561007257600080fd5b61007a6101e0565b6040518080602001828103825283818151815260200191508051906020019080838360005b838110156100ba57808201518184015260208101905061009f565b50505050905090810190601f1680156100e75780820380516001836020036101000a031916815260200191505b509250505060405180910390f35b341561010057600080fd5b61010861027e565b604051808273ffffffffffffffffffffffffffffffffffffffff1673ffffffffffffffffffffffffffffffffffffffff16815260200191505060405180910390f35b341561015557600080fd5b6101a5600480803590602001908201803590602001908080601f016020809104026020016040519081016040528093929190818152602001838380828437820191505050505050919050506102a3565b005b34156101b257600080fd5b6101de600480803573ffffffffffffffffffffffffffffffffffffffff16906020019091905050610318565b005b60018054600181600116156101000203166002900480601f0160208091040260200160405190810160405280929190818152602001828054600181600116156101000203166002900480156102765780601f1061024b57610100808354040283529160200191610276565b820191906000526020600020905b81548152906001019060200180831161025957829003601f168201915b505050505081565b6000809054906101000a900473ffffffffffffffffffffffffffffffffffffffff1681565b6000809054906101000a900473ffffffffffffffffffffffffffffffffffffffff1673ffffffffffffffffffffffffffffffffffffffff163373ffffffffffffffffffffffffffffffffffffffff161415156102fe57600080fd5b806001908051906020019061031492919061046d565b5050565b6000809054906101000a900473ffffffffffffffffffffffffffffffffffffffff1673ffffffffffffffffffffffffffffffffffffffff163373ffffffffffffffffffffffffffffffffffffffff1614151561037357600080fd5b600073ffffffffffffffffffffffffffffffffffffffff168173ffffffffffffffffffffffffffffffffffffffff16141515156103af57600080fd5b8073ffffffffffffffffffffffffffffffffffffffff166000809054906101000a900473ffffffffffffffffffffffffffffffffffffffff1673ffffffffffffffffffffffffffffffffffffffff167f8be0079c531659141344cd1fd0a4f28419497f9722a3daafe3b4186f6b6457e060405160405180910390a3806000806101000a81548173ffffffffffffffffffffffffffffffffffffffff021916908373ffffffffffffffffffffffffffffffffffffffff16021790555050565b828054600181600116156101000203166002900490600052602060002090601f016020900481019282601f106104ae57805160ff19168380011785556104dc565b828001600101855582156104dc579182015b828111156104db5782518255916020019190600101906104c0565b5b5090506104e991906104ed565b5090565b61050f91905b8082111561050b5760008160009055506001016104f3565b5090565b905600a165627a7a7230582097f01b20ebd0715e167094178d438bdf31bac639306547ea7e26dfda1baae6980029",
  "source": "pragma solidity ^0.4.21;\n\nimport \"./Ownable.sol\";\n\n\n/**\n * @title Contactable token\n * @dev Basic version of a contactable contract, allowing the owner to provide a string with their\n * contact information.\n */\ncontract Contactable is Ownable {\n\n  string public contactInformation;\n\n  /**\n    * @dev Allows the owner to set a string with their contact information.\n    * @param info The contact information to attach to the contract.\n    */\n  function setContactInformation(string info) onlyOwner public {\n    contactInformation = info;\n  }\n}\n",
  "sourcePath": "/Users/finnegan/Atoms/crypto-app-web3/ethereum/contracts/zeppelin/ownership/Contactable.sol",
  "compiler": {
    "name": "solc",
    "version": "0.4.21+commit.dfe3193c.Emscripten.clang"
  },
  "schemaVersion": "2.0.0",
  "updatedAt": "2018-04-23T06:54:49.943Z"
}