{
  "contractName": "CryptoPool",
  "abi": [
    {
      "constant": true,
      "inputs": [],
      "name": "name",
      "outputs": [
        {
          "name": "",
          "type": "string"
        }
      ],
      "payable": false,
      "stateMutability": "view",
      "type": "function"
    },
    {
      "constant": true,
      "inputs": [],
      "name": "symbol",
      "outputs": [
        {
          "name": "",
          "type": "string"
        }
      ],
      "payable": false,
      "stateMutability": "view",
      "type": "function"
    },
    {
      "constant": true,
      "inputs": [
        {
          "name": "",
          "type": "address"
        }
      ],
      "name": "pools",
      "outputs": [
        {
          "name": "name",
          "type": "string"
        },
        {
          "name": "poolTotal",
          "type": "uint256"
        },
        {
          "name": "wager",
          "type": "uint256"
        },
        {
          "name": "active",
          "type": "bool"
        }
      ],
      "payable": false,
      "stateMutability": "view",
      "type": "function"
    },
    {
      "inputs": [],
      "payable": false,
      "stateMutability": "nonpayable",
      "type": "constructor"
    },
    {
      "anonymous": false,
      "inputs": [
        {
          "indexed": false,
          "name": "",
          "type": "address"
        }
      ],
      "name": "PoolCreated",
      "type": "event"
    },
    {
      "anonymous": false,
      "inputs": [
        {
          "indexed": false,
          "name": "",
          "type": "address"
        }
      ],
      "name": "PoolEnded",
      "type": "event"
    },
    {
      "constant": true,
      "inputs": [
        {
          "name": "_pools",
          "type": "address[]"
        }
      ],
      "name": "obtainPoolsByOwner",
      "outputs": [
        {
          "name": "",
          "type": "address[]"
        }
      ],
      "payable": false,
      "stateMutability": "view",
      "type": "function"
    },
    {
      "constant": true,
      "inputs": [
        {
          "name": "_pools",
          "type": "address[]"
        }
      ],
      "name": "obtainPoolsByShill",
      "outputs": [
        {
          "name": "",
          "type": "address[]"
        }
      ],
      "payable": false,
      "stateMutability": "view",
      "type": "function"
    },
    {
      "constant": false,
      "inputs": [
        {
          "name": "_poolAddress",
          "type": "address"
        },
        {
          "name": "_name",
          "type": "string"
        },
        {
          "name": "_wager",
          "type": "uint256"
        }
      ],
      "name": "createPool",
      "outputs": [],
      "payable": false,
      "stateMutability": "nonpayable",
      "type": "function"
    },
    {
      "constant": false,
      "inputs": [
        {
          "name": "_poolAddress",
          "type": "address"
        },
        {
          "name": "_toAddress",
          "type": "address"
        }
      ],
      "name": "placeWager",
      "outputs": [],
      "payable": true,
      "stateMutability": "payable",
      "type": "function"
    },
    {
      "constant": false,
      "inputs": [
        {
          "name": "_poolAddress",
          "type": "address"
        },
        {
          "name": "_wager",
          "type": "uint256"
        }
      ],
      "name": "setWager",
      "outputs": [],
      "payable": false,
      "stateMutability": "nonpayable",
      "type": "function"
    },
    {
      "constant": false,
      "inputs": [
        {
          "name": "_poolAddress",
          "type": "address"
        },
        {
          "name": "_shill",
          "type": "address"
        }
      ],
      "name": "releasePool",
      "outputs": [],
      "payable": false,
      "stateMutability": "nonpayable",
      "type": "function"
    },
    {
      "constant": false,
      "inputs": [
        {
          "name": "_poolAddress",
          "type": "address"
        },
        {
          "name": "_newOwner",
          "type": "address"
        }
      ],
      "name": "changePoolOwner",
      "outputs": [],
      "payable": false,
      "stateMutability": "nonpayable",
      "type": "function"
    },
    {
      "constant": false,
      "inputs": [
        {
          "name": "_poolAddress",
          "type": "address"
        },
        {
          "name": "_shill",
          "type": "address"
        },
        {
          "name": "_toAddress",
          "type": "address"
        }
      ],
      "name": "changeShillAddress",
      "outputs": [],
      "payable": false,
      "stateMutability": "nonpayable",
      "type": "function"
    },
    {
      "constant": false,
      "inputs": [
        {
          "name": "_poolAddress",
          "type": "address"
        },
        {
          "name": "_name",
          "type": "string"
        }
      ],
      "name": "changePoolName",
      "outputs": [],
      "payable": false,
      "stateMutability": "nonpayable",
      "type": "function"
    }
  ],
  "bytecode": "0x60806040526040805190810160405280600a81526020017f43727970746f506f6f6c000000000000000000000000000000000000000000008152506000908051906020019062000051929190620000b4565b506040805190810160405280600d81526020017ff09fa79ce2808de29980efb88f00000000000000000000000000000000000000815250600190805190602001906200009f929190620000b4565b50348015620000ad57600080fd5b5062000163565b828054600181600116156101000203166002900490600052602060002090601f016020900481019282601f10620000f757805160ff191683800117855562000128565b8280016001018555821562000128579182015b82811115620001275782518255916020019190600101906200010a565b5b5090506200013791906200013b565b5090565b6200016091905b808211156200015c57600081600090555060010162000142565b5090565b90565b611c2180620001736000396000f3006080604052600436106100ba576000357c0100000000000000000000000000000000000000000000000000000000900463ffffffff16806306fdde03146100bf578063081a22611461014f578063145ea07a146101b2578063153077451461024557806329cacf5a146102925780635ab3f159146102e8578063867bc6551461037157806395d89b411461042c578063a4063dbc146104bc578063abe6383214610591578063d6814cad146105f4578063fcb8b97914610677575b600080fd5b3480156100cb57600080fd5b506100d4610732565b6040518080602001828103825283818151815260200191508051906020019080838360005b838110156101145780820151818401526020810190506100f9565b50505050905090810190601f1680156101415780820380516001836020036101000a031916815260200191505b509250505060405180910390f35b34801561015b57600080fd5b506101b0600480360381019080803573ffffffffffffffffffffffffffffffffffffffff169060200190929190803573ffffffffffffffffffffffffffffffffffffffff1690602001909291905050506107d0565b005b3480156101be57600080fd5b50610243600480360381019080803573ffffffffffffffffffffffffffffffffffffffff169060200190929190803590602001908201803590602001908080601f0160208091040260200160405190810160405280939291908181526020018383808284378201915050505050509192919290803590602001909291905050506108ed565b005b34801561025157600080fd5b50610290600480360381019080803573ffffffffffffffffffffffffffffffffffffffff16906020019092919080359060200190929190505050610bbe565b005b6102e6600480360381019080803573ffffffffffffffffffffffffffffffffffffffff169060200190929190803573ffffffffffffffffffffffffffffffffffffffff169060200190929190505050610ca4565b005b3480156102f457600080fd5b5061036f600480360381019080803573ffffffffffffffffffffffffffffffffffffffff169060200190929190803590602001908201803590602001908080601f0160208091040260200160405190810160405280939291908181526020018383808284378201915050505050509192919290505050610ef2565b005b34801561037d57600080fd5b506103d560048036038101908080359060200190820180359060200190808060200260200160405190810160405280939291908181526020018383602002808284378201915050505050509192919290505050610fe8565b6040518080602001828103825283818151815260200191508051906020019060200280838360005b838110156104185780820151818401526020810190506103fd565b505050509050019250505060405180910390f35b34801561043857600080fd5b5061044161123d565b6040518080602001828103825283818151815260200191508051906020019080838360005b83811015610481578082015181840152602081019050610466565b50505050905090810190601f1680156104ae5780820380516001836020036101000a031916815260200191505b509250505060405180910390f35b3480156104c857600080fd5b506104fd600480360381019080803573ffffffffffffffffffffffffffffffffffffffff1690602001909291905050506112db565b604051808060200185815260200184815260200183151515158152602001828103825286818151815260200191508051906020019080838360005b83811015610553578082015181840152602081019050610538565b50505050905090810190601f1680156105805780820380516001836020036101000a031916815260200191505b509550505050505060405180910390f35b34801561059d57600080fd5b506105f2600480360381019080803573ffffffffffffffffffffffffffffffffffffffff169060200190929190803573ffffffffffffffffffffffffffffffffffffffff1690602001909291905050506113b0565b005b34801561060057600080fd5b50610675600480360381019080803573ffffffffffffffffffffffffffffffffffffffff169060200190929190803573ffffffffffffffffffffffffffffffffffffffff169060200190929190803573ffffffffffffffffffffffffffffffffffffffff169060200190929190505050611755565b005b34801561068357600080fd5b506106db600480360381019080803590602001908201803590602001908080602002602001604051908101604052809392919081815260200183836020028082843782019150505050505091929192905050506118b3565b6040518080602001828103825283818151815260200191508051906020019060200280838360005b8381101561071e578082015181840152602081019050610703565b505050509050019250505060405180910390f35b60008054600181600116156101000203166002900480601f0160208091040260200160405190810160405280929190818152602001828054600181600116156101000203166002900480156107c85780601f1061079d576101008083540402835291602001916107c8565b820191906000526020600020905b8154815290600101906020018083116107ab57829003601f168201915b505050505081565b813373ffffffffffffffffffffffffffffffffffffffff16600360008373ffffffffffffffffffffffffffffffffffffffff1673ffffffffffffffffffffffffffffffffffffffff16815260200190815260200160002060009054906101000a900473ffffffffffffffffffffffffffffffffffffffff1673ffffffffffffffffffffffffffffffffffffffff1614151561086a57600080fd5b81600360008573ffffffffffffffffffffffffffffffffffffffff1673ffffffffffffffffffffffffffffffffffffffff16815260200190815260200160002060006101000a81548173ffffffffffffffffffffffffffffffffffffffff021916908373ffffffffffffffffffffffffffffffffffffffff160217905550505050565b600260008473ffffffffffffffffffffffffffffffffffffffff1673ffffffffffffffffffffffffffffffffffffffff16815260200190815260200160002060030160009054906101000a900460ff1615151561094957600080fd5b81600260008573ffffffffffffffffffffffffffffffffffffffff1673ffffffffffffffffffffffffffffffffffffffff168152602001908152602001600020600001908051906020019061099f929190611b50565b5080600260008573ffffffffffffffffffffffffffffffffffffffff1673ffffffffffffffffffffffffffffffffffffffff168152602001908152602001600020600201819055506001600260008573ffffffffffffffffffffffffffffffffffffffff1673ffffffffffffffffffffffffffffffffffffffff16815260200190815260200160002060030160006101000a81548160ff02191690831515021790555033600360008573ffffffffffffffffffffffffffffffffffffffff1673ffffffffffffffffffffffffffffffffffffffff16815260200190815260200160002060006101000a81548173ffffffffffffffffffffffffffffffffffffffff021916908373ffffffffffffffffffffffffffffffffffffffff160217905550610b136001600460003373ffffffffffffffffffffffffffffffffffffffff1673ffffffffffffffffffffffffffffffffffffffff16815260200190815260200160002054611b3490919063ffffffff16565b600460003373ffffffffffffffffffffffffffffffffffffffff1673ffffffffffffffffffffffffffffffffffffffff168152602001908152602001600020819055507f83a48fbcfc991335314e74d0496aab6a1987e992ddc85dddbcc4d6dd6ef2e9fc83604051808273ffffffffffffffffffffffffffffffffffffffff1673ffffffffffffffffffffffffffffffffffffffff16815260200191505060405180910390a1505050565b813373ffffffffffffffffffffffffffffffffffffffff16600360008373ffffffffffffffffffffffffffffffffffffffff1673ffffffffffffffffffffffffffffffffffffffff16815260200190815260200160002060009054906101000a900473ffffffffffffffffffffffffffffffffffffffff1673ffffffffffffffffffffffffffffffffffffffff16141515610c5857600080fd5b81600260008573ffffffffffffffffffffffffffffffffffffffff1673ffffffffffffffffffffffffffffffffffffffff16815260200190815260200160002060020181905550505050565b600260008373ffffffffffffffffffffffffffffffffffffffff1673ffffffffffffffffffffffffffffffffffffffff16815260200190815260200160002060030160009054906101000a900460ff161515610cff57600080fd5b610d5434600260008573ffffffffffffffffffffffffffffffffffffffff1673ffffffffffffffffffffffffffffffffffffffff16815260200190815260200160002060010154611b3490919063ffffffff16565b600260008473ffffffffffffffffffffffffffffffffffffffff1673ffffffffffffffffffffffffffffffffffffffff1681526020019081526020016000206001018190555080600260008473ffffffffffffffffffffffffffffffffffffffff1673ffffffffffffffffffffffffffffffffffffffff16815260200190815260200160002060040160003373ffffffffffffffffffffffffffffffffffffffff1673ffffffffffffffffffffffffffffffffffffffff16815260200190815260200160002060006101000a81548173ffffffffffffffffffffffffffffffffffffffff021916908373ffffffffffffffffffffffffffffffffffffffff160217905550610eab6001600560003373ffffffffffffffffffffffffffffffffffffffff1673ffffffffffffffffffffffffffffffffffffffff16815260200190815260200160002054611b3490919063ffffffff16565b600560003373ffffffffffffffffffffffffffffffffffffffff1673ffffffffffffffffffffffffffffffffffffffff168152602001908152602001600020819055505050565b813373ffffffffffffffffffffffffffffffffffffffff16600360008373ffffffffffffffffffffffffffffffffffffffff1673ffffffffffffffffffffffffffffffffffffffff16815260200190815260200160002060009054906101000a900473ffffffffffffffffffffffffffffffffffffffff1673ffffffffffffffffffffffffffffffffffffffff16141515610f8c57600080fd5b81600260008573ffffffffffffffffffffffffffffffffffffffff1673ffffffffffffffffffffffffffffffffffffffff1681526020019081526020016000206000019080519060200190610fe2929190611b50565b50505050565b606080600080601a8551101515610ffe57600080fd5b601a600460003373ffffffffffffffffffffffffffffffffffffffff1673ffffffffffffffffffffffffffffffffffffffff1681526020019081526020016000205410156110bc57600460003373ffffffffffffffffffffffffffffffffffffffff1673ffffffffffffffffffffffffffffffffffffffff168152602001908152602001600020546040519080825280602002602001820160405280156110b45781602001602082028038833980820191505090505b5092506110f0565b60196040519080825280602002602001820160405280156110ec5781602001602082028038833980820191505090505b5092505b60009150600090505b8451811015611232573373ffffffffffffffffffffffffffffffffffffffff1660036000878481518110151561112b57fe5b9060200190602002015173ffffffffffffffffffffffffffffffffffffffff1673ffffffffffffffffffffffffffffffffffffffff16815260200190815260200160002060009054906101000a900473ffffffffffffffffffffffffffffffffffffffff1673ffffffffffffffffffffffffffffffffffffffff1614156112255784818151811015156111ba57fe5b9060200190602002015183838151811015156111d257fe5b9060200190602002019073ffffffffffffffffffffffffffffffffffffffff16908173ffffffffffffffffffffffffffffffffffffffff1681525050611222600183611b3490919063ffffffff16565b91505b80806001019150506110f9565b829350505050919050565b60018054600181600116156101000203166002900480601f0160208091040260200160405190810160405280929190818152602001828054600181600116156101000203166002900480156112d35780601f106112a8576101008083540402835291602001916112d3565b820191906000526020600020905b8154815290600101906020018083116112b657829003601f168201915b505050505081565b6002602052806000526040600020600091509050806000018054600181600116156101000203166002900480601f0160208091040260200160405190810160405280929190818152602001828054600181600116156101000203166002900480156113875780601f1061135c57610100808354040283529160200191611387565b820191906000526020600020905b81548152906001019060200180831161136a57829003601f168201915b5050505050908060010154908060020154908060030160009054906101000a900460ff16905084565b813373ffffffffffffffffffffffffffffffffffffffff16600360008373ffffffffffffffffffffffffffffffffffffffff1673ffffffffffffffffffffffffffffffffffffffff16815260200190815260200160002060009054906101000a900473ffffffffffffffffffffffffffffffffffffffff1673ffffffffffffffffffffffffffffffffffffffff1614151561144a57600080fd5b600260008473ffffffffffffffffffffffffffffffffffffffff1673ffffffffffffffffffffffffffffffffffffffff16815260200190815260200160002060030160009054906101000a900460ff1615156114a557600080fd5b6000600260008573ffffffffffffffffffffffffffffffffffffffff1673ffffffffffffffffffffffffffffffffffffffff16815260200190815260200160002060040160008473ffffffffffffffffffffffffffffffffffffffff1673ffffffffffffffffffffffffffffffffffffffff16815260200190815260200160002060009054906101000a900473ffffffffffffffffffffffffffffffffffffffff1673ffffffffffffffffffffffffffffffffffffffff161415151561156a57600080fd5b600260008473ffffffffffffffffffffffffffffffffffffffff1673ffffffffffffffffffffffffffffffffffffffff16815260200190815260200160002060040160008373ffffffffffffffffffffffffffffffffffffffff1673ffffffffffffffffffffffffffffffffffffffff16815260200190815260200160002060009054906101000a900473ffffffffffffffffffffffffffffffffffffffff1673ffffffffffffffffffffffffffffffffffffffff166108fc600260008673ffffffffffffffffffffffffffffffffffffffff1673ffffffffffffffffffffffffffffffffffffffff168152602001908152602001600020600101549081150290604051600060405180830381858888f19350505050158015611691573d6000803e3d6000fd5b506000600260008573ffffffffffffffffffffffffffffffffffffffff1673ffffffffffffffffffffffffffffffffffffffff16815260200190815260200160002060030160006101000a81548160ff0219169083151502179055507ffeba534d95469be2b9f083643be5f83b8ffd5aba9b64b79f3e71e51acd5c87a283604051808273ffffffffffffffffffffffffffffffffffffffff1673ffffffffffffffffffffffffffffffffffffffff16815260200191505060405180910390a1505050565b823373ffffffffffffffffffffffffffffffffffffffff16600360008373ffffffffffffffffffffffffffffffffffffffff1673ffffffffffffffffffffffffffffffffffffffff16815260200190815260200160002060009054906101000a900473ffffffffffffffffffffffffffffffffffffffff1673ffffffffffffffffffffffffffffffffffffffff161415156117ef57600080fd5b81600260008673ffffffffffffffffffffffffffffffffffffffff1673ffffffffffffffffffffffffffffffffffffffff16815260200190815260200160002060040160008573ffffffffffffffffffffffffffffffffffffffff1673ffffffffffffffffffffffffffffffffffffffff16815260200190815260200160002060006101000a81548173ffffffffffffffffffffffffffffffffffffffff021916908373ffffffffffffffffffffffffffffffffffffffff16021790555050505050565b606080600080601a85511015156118c957600080fd5b601a600560003373ffffffffffffffffffffffffffffffffffffffff1673ffffffffffffffffffffffffffffffffffffffff16815260200190815260200160002054101561198757600560003373ffffffffffffffffffffffffffffffffffffffff1673ffffffffffffffffffffffffffffffffffffffff1681526020019081526020016000205460405190808252806020026020018201604052801561197f5781602001602082028038833980820191505090505b5092506119bb565b60196040519080825280602002602001820160405280156119b75781602001602082028038833980820191505090505b5092505b60009150600090505b8451811015611b295760006002600087848151811015156119e157fe5b9060200190602002015173ffffffffffffffffffffffffffffffffffffffff1673ffffffffffffffffffffffffffffffffffffffff16815260200190815260200160002060040160003373ffffffffffffffffffffffffffffffffffffffff1673ffffffffffffffffffffffffffffffffffffffff16815260200190815260200160002060009054906101000a900473ffffffffffffffffffffffffffffffffffffffff1673ffffffffffffffffffffffffffffffffffffffff16141515611b1c578481815181101515611ab157fe5b906020019060200201518383815181101515611ac957fe5b9060200190602002019073ffffffffffffffffffffffffffffffffffffffff16908173ffffffffffffffffffffffffffffffffffffffff1681525050611b19600183611b3490919063ffffffff16565b91505b80806001019150506119c4565b829350505050919050565b60008183019050828110151515611b4757fe5b80905092915050565b828054600181600116156101000203166002900490600052602060002090601f016020900481019282601f10611b9157805160ff1916838001178555611bbf565b82800160010185558215611bbf579182015b82811115611bbe578251825591602001919060010190611ba3565b5b509050611bcc9190611bd0565b5090565b611bf291905b80821115611bee576000816000905550600101611bd6565b5090565b905600a165627a7a72305820f71cf991e1b7eaf7376ebf2651af1ea8eb44bf57773c56182d9f5a82926c7d820029",
  "source": "pragma solidity ^0.4.21;\n\nimport './zeppelin/math/SafeMath.sol';\n\ncontract CryptoPool {\n\tusing SafeMath for uint256;\n\n\tstring public name = 'CryptoPool';\n\tstring public symbol = 'ðŸ§œâ€â™€ï¸';\n\n  constructor () {\n\t}\n\n\tevent PoolCreated(address);\n\tevent PoolEnded(address);\n\n\tstruct Pool {\n\t\tstring name;\n\t\tuint256 poolTotal;\n\t\tuint256 wager;\n\t\tbool active;\n\t\tmapping (address => address) shills;\n\t}\n\n\tmapping (address => Pool) public pools;\n\tmapping (address => address) private poolToOwner;\n\tmapping (address => uint) private ownerPoolCount;\n\tmapping (address => uint) private shillPoolCount;\n\n\tmodifier isPoolOwner(address _poolAddress) {\n\t\trequire(poolToOwner[_poolAddress] == msg.sender);\n\t\t_;\n\t}\n\n\t// return an array of pools that the sender owns\n\t// address[] _pools - list of ethereum addresses\n\t// maximum of 25 addresses in _pools\n\t// @param _pools an array of pool addresses\n\n\tfunction obtainPoolsByOwner(address[] _pools) public view returns (address[]) {\n\t\trequire(_pools.length < 26);\n\t\taddress[] memory result;\n\t\tif (ownerPoolCount[msg.sender] < 26) {\n\t\t\t result = new address[](ownerPoolCount[msg.sender]);\n\t\t} else {\n\t\t\t result = new address[](25);\n\t\t}\n\t\tuint counter = 0;\n    for (uint i = 0; i < _pools.length; i++) {\n      if (poolToOwner[_pools[i]] == msg.sender) {\n        result[counter] = _pools[i];\n        counter = counter.add(1);\n      }\n    }\n    return result;\n\t}\n\n\t// return an array of pools that the sender owns\n\t// address[] _pools - list of ethereum addresses\n\t// maximum of 25 addresses in _pools\n\t// @param _pools an array of pool addresses\n\n\tfunction obtainPoolsByShill(address[] _pools) public view returns (address[]) {\n\t\trequire(_pools.length < 26);\n\t\taddress[] memory result;\n\t\tif (shillPoolCount[msg.sender] < 26) {\n\t\t\tresult = new address[](shillPoolCount[msg.sender]);\n\t\t} else {\n\t\t\tresult = new address[](25);\n\t\t}\n\t\tuint counter = 0;\n    for (uint i = 0; i < _pools.length; i++) {\n      if (pools[_pools[i]].shills[msg.sender] != 0) {\n        result[counter] = _pools[i];\n        counter = counter.add(1);\n      }\n    }\n    return result;\n\t}\n\n\t// creates a Pool struct\n\t// @param _poolAddress: ethereum wallet that will be unique to each Pool\n\t// @param _name: a string that will be the name of the Pool\n\t// @param _wager: how much ether it will cost for each participant (aka shill) to be added to the Pool\n\n\tfunction createPool(address _poolAddress, string _name, uint256 _wager) public {\n\t\trequire(!pools[_poolAddress].active);\n\t  pools[_poolAddress].name = _name;\n\t\tpools[_poolAddress].wager = _wager;\n\t\tpools[_poolAddress].active = true;\n    poolToOwner[_poolAddress] = msg.sender;\n\t\townerPoolCount[msg.sender] = ownerPoolCount[msg.sender].add(1);\n\t\temit PoolCreated(_poolAddress);\n\t}\n\n\tfunction placeWager(address _poolAddress, address _toAddress) public payable {\n\t\trequire(pools[_poolAddress].active);\n\t\tpools[_poolAddress].poolTotal = pools[_poolAddress].poolTotal.add(msg.value);\n\t\tpools[_poolAddress].shills[msg.sender] = _toAddress;\n\t\tshillPoolCount[msg.sender] = shillPoolCount[msg.sender].add(1);\n\t}\n\n\tfunction setWager(address _poolAddress, uint256 _wager) public isPoolOwner(_poolAddress) {\n\t\tpools[_poolAddress].wager = _wager;\n\t}\n\n // release all of the ether collected in a pool total to the winning participant\n // address of participant address to pay is saved when a bet is placed\n\n\tfunction releasePool(address _poolAddress, address _shill) public isPoolOwner(_poolAddress) {\n\t\trequire(pools[_poolAddress].active);\n\t\trequire(pools[_poolAddress].shills[_shill] != 0);\n\t\tpools[_poolAddress].shills[_shill].transfer(pools[_poolAddress].poolTotal);\n\t\tpools[_poolAddress].active = false;\n\t\temit PoolEnded(_poolAddress);\n\t}\n\n\tfunction changePoolOwner(address _poolAddress, address _newOwner) public isPoolOwner(_poolAddress) {\n\t\tpoolToOwner[_poolAddress] = _newOwner;\n\t}\n\n\tfunction changeShillAddress(address _poolAddress, address _shill, address _toAddress) public isPoolOwner(_poolAddress) {\n\t\tpools[_poolAddress].shills[_shill] = _toAddress;\n\t}\n\n\tfunction changePoolName(address _poolAddress, string _name) public isPoolOwner(_poolAddress) {\n\t\tpools[_poolAddress].name = _name;\n\t}\n\n}\n",
  "sourcePath": "/Users/finnegan/Atoms/crypto-app-web3/ethereum/contracts/CryptoPool.sol",
  "compiler": {
    "name": "solc",
    "version": "0.4.23+commit.124ca40d.Emscripten.clang"
  },
  "schemaVersion": "2.0.0",
  "updatedAt": "2018-05-30T19:50:50.544Z"
}