{
  "contractName": "LimitBalance",
  "abi": [
    {
      "constant": true,
      "inputs": [],
      "name": "limit",
      "outputs": [
        {
          "name": "",
          "type": "uint256"
        }
      ],
      "payable": false,
      "stateMutability": "view",
      "type": "function"
    },
    {
      "inputs": [
        {
          "name": "_limit",
          "type": "uint256"
        }
      ],
      "payable": false,
      "stateMutability": "nonpayable",
      "type": "constructor"
    }
  ],
  "bytecode": "0x6060604052341561000f57600080fd5b6040516020806100dd833981016040528080519060200190919050508060008190555050609c806100416000396000f300606060405260043610603f576000357c0100000000000000000000000000000000000000000000000000000000900463ffffffff168063a4d66daf146044575b600080fd5b3415604e57600080fd5b6054606a565b6040518082815260200191505060405180910390f35b600054815600a165627a7a72305820de94970bb41b26fb8a0f0be6b6a88ec87d6a4d1220f815bb8fd6162e705e7c500029",
  "source": "pragma solidity ^0.4.21;\n\n\n/**\n * @title LimitBalance\n * @dev Simple contract to limit the balance of child contract.\n * @dev Note this doesn't prevent other contracts to send funds by using selfdestruct(address);\n * @dev See: https://github.com/ConsenSys/smart-contract-best-practices#remember-that-ether-can-be-forcibly-sent-to-an-account\n */\ncontract LimitBalance {\n\n  uint256 public limit;\n\n  /**\n   * @dev Constructor that sets the passed value as a limit.\n   * @param _limit uint256 to represent the limit.\n   */\n  function LimitBalance(uint256 _limit) public {\n    limit = _limit;\n  }\n\n  /**\n   * @dev Checks if limit was reached. Case true, it throws.\n   */\n  modifier limitedPayable() {\n    require(address(this).balance <= limit);\n    _;\n\n  }\n\n}\n",
  "sourcePath": "/Users/finnegan/Atoms/crypto-app-web3/ethereum/contracts/zeppelin/LimitBalance.sol",
  "compiler": {
    "name": "solc",
    "version": "0.4.21+commit.dfe3193c.Emscripten.clang"
  },
  "schemaVersion": "2.0.0",
  "updatedAt": "2018-04-23T06:54:49.928Z"
}