{
  "contractName": "SignatureBouncer",
  "abi": [
    {
      "constant": true,
      "inputs": [
        {
          "name": "addr",
          "type": "address"
        },
        {
          "name": "roleName",
          "type": "string"
        }
      ],
      "name": "checkRole",
      "outputs": [],
      "payable": false,
      "stateMutability": "view",
      "type": "function"
    },
    {
      "constant": true,
      "inputs": [
        {
          "name": "addr",
          "type": "address"
        },
        {
          "name": "roleName",
          "type": "string"
        }
      ],
      "name": "hasRole",
      "outputs": [
        {
          "name": "",
          "type": "bool"
        }
      ],
      "payable": false,
      "stateMutability": "view",
      "type": "function"
    },
    {
      "constant": true,
      "inputs": [],
      "name": "owner",
      "outputs": [
        {
          "name": "",
          "type": "address"
        }
      ],
      "payable": false,
      "stateMutability": "view",
      "type": "function"
    },
    {
      "constant": true,
      "inputs": [],
      "name": "ROLE_BOUNCER",
      "outputs": [
        {
          "name": "",
          "type": "string"
        }
      ],
      "payable": false,
      "stateMutability": "view",
      "type": "function"
    },
    {
      "constant": false,
      "inputs": [
        {
          "name": "newOwner",
          "type": "address"
        }
      ],
      "name": "transferOwnership",
      "outputs": [],
      "payable": false,
      "stateMutability": "nonpayable",
      "type": "function"
    },
    {
      "anonymous": false,
      "inputs": [
        {
          "indexed": false,
          "name": "addr",
          "type": "address"
        },
        {
          "indexed": false,
          "name": "roleName",
          "type": "string"
        }
      ],
      "name": "RoleAdded",
      "type": "event"
    },
    {
      "anonymous": false,
      "inputs": [
        {
          "indexed": false,
          "name": "addr",
          "type": "address"
        },
        {
          "indexed": false,
          "name": "roleName",
          "type": "string"
        }
      ],
      "name": "RoleRemoved",
      "type": "event"
    },
    {
      "anonymous": false,
      "inputs": [
        {
          "indexed": true,
          "name": "previousOwner",
          "type": "address"
        },
        {
          "indexed": true,
          "name": "newOwner",
          "type": "address"
        }
      ],
      "name": "OwnershipTransferred",
      "type": "event"
    },
    {
      "constant": false,
      "inputs": [
        {
          "name": "_bouncer",
          "type": "address"
        }
      ],
      "name": "addBouncer",
      "outputs": [],
      "payable": false,
      "stateMutability": "nonpayable",
      "type": "function"
    },
    {
      "constant": false,
      "inputs": [
        {
          "name": "_bouncer",
          "type": "address"
        }
      ],
      "name": "removeBouncer",
      "outputs": [],
      "payable": false,
      "stateMutability": "nonpayable",
      "type": "function"
    }
  ],
  "bytecode": "0x6060604052336000806101000a81548173ffffffffffffffffffffffffffffffffffffffff021916908373ffffffffffffffffffffffffffffffffffffffff160217905550610b8f806100536000396000f300606060405260043610610083576000357c0100000000000000000000000000000000000000000000000000000000900463ffffffff1680630988ca8c146100885780631479290e14610104578063217fe6c61461013d578063888764c8146101d15780638da5cb5b1461020a578063d466ab6b1461025f578063f2fde38b146102ed575b600080fd5b341561009357600080fd5b610102600480803573ffffffffffffffffffffffffffffffffffffffff1690602001909190803590602001908201803590602001908080601f01602080910402602001604051908101604052809392919081815260200183838082843782019150505050505091905050610326565b005b341561010f57600080fd5b61013b600480803573ffffffffffffffffffffffffffffffffffffffff169060200190919050506103a7565b005b341561014857600080fd5b6101b7600480803573ffffffffffffffffffffffffffffffffffffffff1690602001909190803590602001908201803590602001908080601f01602080910402602001604051908101604052809392919081815260200183838082843782019150505050505091905050610480565b604051808215151515815260200191505060405180910390f35b34156101dc57600080fd5b610208600480803573ffffffffffffffffffffffffffffffffffffffff16906020019091905050610507565b005b341561021557600080fd5b61021d6105e0565b604051808273ffffffffffffffffffffffffffffffffffffffff1673ffffffffffffffffffffffffffffffffffffffff16815260200191505060405180910390f35b341561026a57600080fd5b610272610605565b6040518080602001828103825283818151815260200191508051906020019080838360005b838110156102b2578082015181840152602081019050610297565b50505050905090810190601f1680156102df5780820380516001836020036101000a031916815260200191505b509250505060405180910390f35b34156102f857600080fd5b610324600480803573ffffffffffffffffffffffffffffffffffffffff1690602001909190505061063e565b005b6103a3826001836040518082805190602001908083835b602083101515610362578051825260208201915060208101905060208303925061033d565b6001836020036101000a038019825116818451168082178552505050505050905001915050908152602001604051809103902061079390919063ffffffff16565b5050565b6000809054906101000a900473ffffffffffffffffffffffffffffffffffffffff1673ffffffffffffffffffffffffffffffffffffffff163373ffffffffffffffffffffffffffffffffffffffff1614151561040257600080fd5b600073ffffffffffffffffffffffffffffffffffffffff168173ffffffffffffffffffffffffffffffffffffffff161415151561043e57600080fd5b61047d816040805190810160405280600781526020017f626f756e636572000000000000000000000000000000000000000000000000008152506107ac565b50565b60006104ff836001846040518082805190602001908083835b6020831015156104be5780518252602082019150602081019050602083039250610499565b6001836020036101000a03801982511681845116808217855250505050505090500191505090815260200160405180910390206108fd90919063ffffffff16565b905092915050565b6000809054906101000a900473ffffffffffffffffffffffffffffffffffffffff1673ffffffffffffffffffffffffffffffffffffffff163373ffffffffffffffffffffffffffffffffffffffff1614151561056257600080fd5b600073ffffffffffffffffffffffffffffffffffffffff168173ffffffffffffffffffffffffffffffffffffffff161415151561059e57600080fd5b6105dd816040805190810160405280600781526020017f626f756e63657200000000000000000000000000000000000000000000000000815250610956565b50565b6000809054906101000a900473ffffffffffffffffffffffffffffffffffffffff1681565b6040805190810160405280600781526020017f626f756e6365720000000000000000000000000000000000000000000000000081525081565b6000809054906101000a900473ffffffffffffffffffffffffffffffffffffffff1673ffffffffffffffffffffffffffffffffffffffff163373ffffffffffffffffffffffffffffffffffffffff1614151561069957600080fd5b600073ffffffffffffffffffffffffffffffffffffffff168173ffffffffffffffffffffffffffffffffffffffff16141515156106d557600080fd5b8073ffffffffffffffffffffffffffffffffffffffff166000809054906101000a900473ffffffffffffffffffffffffffffffffffffffff1673ffffffffffffffffffffffffffffffffffffffff167f8be0079c531659141344cd1fd0a4f28419497f9722a3daafe3b4186f6b6457e060405160405180910390a3806000806101000a81548173ffffffffffffffffffffffffffffffffffffffff021916908373ffffffffffffffffffffffffffffffffffffffff16021790555050565b61079d82826108fd565b15156107a857600080fd5b5050565b610829826001836040518082805190602001908083835b6020831015156107e857805182526020820191506020810190506020830392506107c3565b6001836020036101000a0380198251168184511680821785525050505050509050019150509081526020016040518091039020610aa790919063ffffffff16565b7fd211483f91fc6eff862467f8de606587a30c8fc9981056f051b897a418df803a8282604051808373ffffffffffffffffffffffffffffffffffffffff1673ffffffffffffffffffffffffffffffffffffffff16815260200180602001828103825283818151815260200191508051906020019080838360005b838110156108be5780820151818401526020810190506108a3565b50505050905090810190601f1680156108eb5780820380516001836020036101000a031916815260200191505b50935050505060405180910390a15050565b60008260000160008373ffffffffffffffffffffffffffffffffffffffff1673ffffffffffffffffffffffffffffffffffffffff16815260200190815260200160002060009054906101000a900460ff16905092915050565b6109d3826001836040518082805190602001908083835b602083101515610992578051825260208201915060208101905060208303925061096d565b6001836020036101000a0380198251168184511680821785525050505050509050019150509081526020016040518091039020610b0590919063ffffffff16565b7fbfec83d64eaa953f2708271a023ab9ee82057f8f3578d548c1a4ba0b5b7004898282604051808373ffffffffffffffffffffffffffffffffffffffff1673ffffffffffffffffffffffffffffffffffffffff16815260200180602001828103825283818151815260200191508051906020019080838360005b83811015610a68578082015181840152602081019050610a4d565b50505050905090810190601f168015610a955780820380516001836020036101000a031916815260200191505b50935050505060405180910390a15050565b60008260000160008373ffffffffffffffffffffffffffffffffffffffff1673ffffffffffffffffffffffffffffffffffffffff16815260200190815260200160002060006101000a81548160ff0219169083151502179055505050565b60018260000160008373ffffffffffffffffffffffffffffffffffffffff1673ffffffffffffffffffffffffffffffffffffffff16815260200190815260200160002060006101000a81548160ff02191690831515021790555050505600a165627a7a72305820cf91aed57772fe5007b013f30ba2661711a35e28d6746857180e0a3579025e550029",
  "source": "pragma solidity ^0.4.18;\n\nimport \"../ownership/Ownable.sol\";\nimport \"../ownership/rbac/RBAC.sol\";\nimport \"../ECRecovery.sol\";\n\n/**\n * @title SignatureBouncer\n * @author PhABC and Shrugs\n * @dev Bouncer allows users to submit a signature as a permission to do an action.\n * @dev If the signature is from one of the authorized bouncer addresses, the signature\n * @dev is valid. The owner of the contract adds/removes bouncers.\n * @dev Bouncer addresses can be individual servers signing grants or different\n * @dev users within a decentralized club that have permission to invite other members.\n * @dev\n * @dev This technique is useful for whitelists and airdrops; instead of putting all\n * @dev valid addresses on-chain, simply sign a grant of the form\n * @dev keccak256(`:contractAddress` + `:granteeAddress`) using a valid bouncer address.\n * @dev Then restrict access to your crowdsale/whitelist/airdrop using the\n * @dev `onlyValidSignature` modifier (or implement your own using isValidSignature).\n * @dev\n * @dev See the tests Bouncer.test.js for specific usage examples.\n */\ncontract SignatureBouncer is Ownable, RBAC {\n  using ECRecovery for bytes32;\n\n  string public constant ROLE_BOUNCER = \"bouncer\";\n\n  /**\n   * @dev requires that a valid signature of a bouncer was provided\n   */\n  modifier onlyValidSignature(bytes _sig)\n  {\n    require(isValidSignature(msg.sender, _sig));\n    _;\n  }\n\n  /**\n   * @dev allows the owner to add additional bouncer addresses\n   */\n  function addBouncer(address _bouncer)\n    onlyOwner\n    public\n  {\n    require(_bouncer != address(0));\n    addRole(_bouncer, ROLE_BOUNCER);\n  }\n\n  /**\n   * @dev allows the owner to remove bouncer addresses\n   */\n  function removeBouncer(address _bouncer)\n    onlyOwner\n    public\n  {\n    require(_bouncer != address(0));\n    removeRole(_bouncer, ROLE_BOUNCER);\n  }\n\n  /**\n   * @dev is the signature of `this + sender` from a bouncer?\n   * @return bool\n   */\n  function isValidSignature(address _address, bytes _sig)\n    internal\n    view\n    returns (bool)\n  {\n    return isValidDataHash(\n      keccak256(address(this), _address),\n      _sig\n    );\n  }\n\n  /**\n   * @dev internal function to convert a hash to an eth signed message\n   * @dev and then recover the signature and check it against the bouncer role\n   * @return bool\n   */\n  function isValidDataHash(bytes32 hash, bytes _sig)\n    internal\n    view\n    returns (bool)\n  {\n    address signer = hash\n      .toEthSignedMessageHash()\n      .recover(_sig);\n    return hasRole(signer, ROLE_BOUNCER);\n  }\n}\n",
  "sourcePath": "/Users/finnegan/Atoms/crypto-app-web3/ethereum/contracts/zeppelin/access/SignatureBouncer.sol",
  "compiler": {
    "name": "solc",
    "version": "0.4.21+commit.dfe3193c.Emscripten.clang"
  },
  "schemaVersion": "2.0.0",
  "updatedAt": "2018-04-23T06:54:49.929Z"
}